{
    "contractName": "IdeaRegistry",
    "abi": [
        {
            "inputs": [
                {
                    "internalType": "uint256",
                    "name": "",
                    "type": "uint256"
                }
            ],
            "name": "ideas",
            "outputs": [
                {
                    "internalType": "string",
                    "name": "ipfsHash",
                    "type": "string"
                },
                {
                    "internalType": "address",
                    "name": "creator",
                    "type": "address"
                },
                {
                    "internalType": "uint256",
                    "name": "timestamp",
                    "type": "uint256"
                }
            ],
            "stateMutability": "view",
            "type": "function",
            "constant": true
        },
        {
            "inputs": [
                {
                    "internalType": "string",
                    "name": "ipfsHash",
                    "type": "string"
                }
            ],
            "name": "registerIdea",
            "outputs": [],
            "stateMutability": "nonpayable",
            "type": "function"
        },
        {
            "inputs": [
                {
                    "internalType": "uint256",
                    "name": "index",
                    "type": "uint256"
                }
            ],
            "name": "getIdea",
            "outputs": [
                {
                    "internalType": "string",
                    "name": "",
                    "type": "string"
                },
                {
                    "internalType": "address",
                    "name": "",
                    "type": "address"
                },
                {
                    "internalType": "uint256",
                    "name": "",
                    "type": "uint256"
                }
            ],
            "stateMutability": "view",
            "type": "function",
            "constant": true
        },
        {
            "inputs": [],
            "name": "getIdeaCount",
            "outputs": [
                {
                    "internalType": "uint256",
                    "name": "",
                    "type": "uint256"
                }
            ],
            "stateMutability": "view",
            "type": "function",
            "constant": true
        }
    ],
    "bytecode": "0x608060405234801561000f575f80fd5b50610a078061001d5f395ff3fe608060405234801561000f575f80fd5b506004361061004a575f3560e01c806344de6b2f1461004e578063860d61f11461008057806395b538371461009c578063bab73eab146100ce575b5f80fd5b61006860048036038101906100639190610410565b6100ec565b60405161007793929190610513565b60405180910390f35b61009a6004803603810190610095919061067b565b610227565b005b6100b660048036038101906100b19190610410565b6102e8565b6040516100c593929190610513565b60405180910390f35b6100d66103c1565b6040516100e391906106c2565b60405180910390f35b60605f805f808581548110610104576101036106db565b5b905f5260205f2090600302016040518060600160405290815f8201805461012a90610735565b80601f016020809104026020016040519081016040528092919081815260200182805461015690610735565b80156101a15780601f10610178576101008083540402835291602001916101a1565b820191905f5260205f20905b81548152906001019060200180831161018457829003601f168201915b50505050508152602001600182015f9054906101000a900473ffffffffffffffffffffffffffffffffffffffff1673ffffffffffffffffffffffffffffffffffffffff1673ffffffffffffffffffffffffffffffffffffffff1681526020016002820154815250509050805f015181602001518260400151935093509350509193909250565b5f60405180606001604052808381526020013373ffffffffffffffffffffffffffffffffffffffff16815260200142815250908060018154018082558091505060019003905f5260205f2090600302015f909190919091505f820151815f0190816102929190610902565b506020820151816001015f6101000a81548173ffffffffffffffffffffffffffffffffffffffff021916908373ffffffffffffffffffffffffffffffffffffffff16021790555060408201518160020155505050565b5f81815481106102f6575f80fd5b905f5260205f2090600302015f91509050805f01805461031590610735565b80601f016020809104026020016040519081016040528092919081815260200182805461034190610735565b801561038c5780601f106103635761010080835404028352916020019161038c565b820191905f5260205f20905b81548152906001019060200180831161036f57829003601f168201915b505050505090806001015f9054906101000a900473ffffffffffffffffffffffffffffffffffffffff16908060020154905083565b5f8080549050905090565b5f604051905090565b5f80fd5b5f80fd5b5f819050919050565b6103ef816103dd565b81146103f9575f80fd5b50565b5f8135905061040a816103e6565b92915050565b5f60208284031215610425576104246103d5565b5b5f610432848285016103fc565b91505092915050565b5f81519050919050565b5f82825260208201905092915050565b5f5b83811015610472578082015181840152602081019050610457565b5f8484015250505050565b5f601f19601f8301169050919050565b5f6104978261043b565b6104a18185610445565b93506104b1818560208601610455565b6104ba8161047d565b840191505092915050565b5f73ffffffffffffffffffffffffffffffffffffffff82169050919050565b5f6104ee826104c5565b9050919050565b6104fe816104e4565b82525050565b61050d816103dd565b82525050565b5f6060820190508181035f83015261052b818661048d565b905061053a60208301856104f5565b6105476040830184610504565b949350505050565b5f80fd5b5f80fd5b7f4e487b71000000000000000000000000000000000000000000000000000000005f52604160045260245ffd5b61058d8261047d565b810181811067ffffffffffffffff821117156105ac576105ab610557565b5b80604052505050565b5f6105be6103cc565b90506105ca8282610584565b919050565b5f67ffffffffffffffff8211156105e9576105e8610557565b5b6105f28261047d565b9050602081019050919050565b828183375f83830152505050565b5f61061f61061a846105cf565b6105b5565b90508281526020810184848401111561063b5761063a610553565b5b6106468482856105ff565b509392505050565b5f82601f8301126106625761066161054f565b5b813561067284826020860161060d565b91505092915050565b5f602082840312156106905761068f6103d5565b5b5f82013567ffffffffffffffff8111156106ad576106ac6103d9565b5b6106b98482850161064e565b91505092915050565b5f6020820190506106d55f830184610504565b92915050565b7f4e487b71000000000000000000000000000000000000000000000000000000005f52603260045260245ffd5b7f4e487b71000000000000000000000000000000000000000000000000000000005f52602260045260245ffd5b5f600282049050600182168061074c57607f821691505b60208210810361075f5761075e610708565b5b50919050565b5f819050815f5260205f209050919050565b5f6020601f8301049050919050565b5f82821b905092915050565b5f600883026107c17fffffffffffffffffffffffffffffffffffffffffffffffffffffffffffffffff82610786565b6107cb8683610786565b95508019841693508086168417925050509392505050565b5f819050919050565b5f6108066108016107fc846103dd565b6107e3565b6103dd565b9050919050565b5f819050919050565b61081f836107ec565b61083361082b8261080d565b848454610792565b825550505050565b5f90565b61084761083b565b610852818484610816565b505050565b5b818110156108755761086a5f8261083f565b600181019050610858565b5050565b601f8211156108ba5761088b81610765565b61089484610777565b810160208510156108a3578190505b6108b76108af85610777565b830182610857565b50505b505050565b5f82821c905092915050565b5f6108da5f19846008026108bf565b1980831691505092915050565b5f6108f283836108cb565b9150826002028217905092915050565b61090b8261043b565b67ffffffffffffffff81111561092457610923610557565b5b61092e8254610735565b610939828285610879565b5f60209050601f83116001811461096a575f8415610958578287015190505b61096285826108e7565b8655506109c9565b601f19841661097886610765565b5f5b8281101561099f5784890151825560018201915060208501945060208101905061097a565b868310156109bc57848901516109b8601f8916826108cb565b8355505b6001600288020188555050505b50505050505056fea2646970667358221220cd02e7abee89383850ce403fde57fefd270f6715332d6f1315a8a85c71de37f964736f6c63430008150033",
    "immutableReferences": {},
    "source": "// SPDX-License-Identifier: MIT\r\npragma solidity ^0.8.0;\r\n\r\ncontract IdeaRegistry {\r\n    struct Idea {\r\n        string ipfsHash;\r\n        address creator;\r\n        uint timestamp;\r\n    }\r\n\r\n    Idea[] public ideas;\r\n\r\n    function registerIdea(string memory ipfsHash) public {\r\n        ideas.push(Idea(ipfsHash, msg.sender, block.timestamp));\r\n    }\r\n\r\n    function getIdea(uint index) public view returns (string memory, address, uint) {\r\n        Idea memory idea = ideas[index];\r\n        return (idea.ipfsHash, idea.creator, idea.timestamp);\r\n    }\r\n\r\n    function getIdeaCount() public view returns (uint) {\r\n        return ideas.length;\r\n    }\r\n}\r\n",
    "sourcePath": "C:\\Users\\91858\\vichar-chain\\contracts\\IdeaRegistry.sol",
    "compiler": {
        "name": "solc",
        "version": "0.8.21+commit.d9974bed.Emscripten.clang"
    },
    "schemaVersion": "3.4.16",
    "updatedAt": "2025-05-14T15:41:14.240Z",
    "networkType": "ethereum",
    "devdoc": {
        "kind": "dev",
        "methods": {},
        "version": 1
    },
    "userdoc": {
        "kind": "user",
        "methods": {},
        "version": 1
    }
}